{"bytecode":"608060405234801561001057600080fd5b50600080546001600160a01b03191633179055610428806100326000396000f3fe608060405234801561001057600080fd5b50600436106100575760003560e01c80632688af261461005c57806368e66b83146100845780638da5cb5b14610099578063b90a74e8146100c4578063cebdc1c5146100d7575b600080fd5b61006f61006a366004610306565b610136565b60405190151581526020015b60405180910390f35b610097610092366004610306565b610170565b005b6000546100ac906001600160a01b031681565b6040516001600160a01b03909116815260200161007b565b6100976100d2366004610306565b610248565b6101176100e5366004610306565b80516020818301810180516001825292820191909301209152546001600160a01b03811690600160a01b900460ff1682565b604080516001600160a01b03909316835290151560208301520161007b565b600060018260405161014891906103b7565b90815260405160209181900391909101902054600160a01b900460ff16151560011492915050565b61017981610136565b156101cb5760405162461bcd60e51b815260206004820181905260248201527f436572746966696361746520697320616c726561647920617661696c61626c6560448201526064015b60405180910390fd5b336001826040516101dc91906103b7565b90815260405190819003602001812080546001600160a01b03939093166001600160a01b031990931692909217909155600190819061021c9084906103b7565b9081526040519081900360200190208054911515600160a01b0260ff60a01b1990921691909117905550565b61025181610136565b61029d5760405162461bcd60e51b815260206004820152601a60248201527f436572746966696361746520646f6573206e6f7420657869737400000000000060448201526064016101c2565b60006001826040516102af91906103b7565b90815260405190819003602001812080546001600160a01b03939093166001600160a01b03199093169290921790915560009060019061021c9084906103b7565b634e487b7160e01b600052604160045260246000fd5b60006020828403121561031857600080fd5b813567ffffffffffffffff8082111561033057600080fd5b818401915084601f83011261034457600080fd5b813581811115610356576103566102f0565b604051601f8201601f19908116603f0116810190838211818310171561037e5761037e6102f0565b8160405282815287602084870101111561039757600080fd5b826020860160208301376000928101602001929092525095945050505050565b6000825160005b818110156103d857602081860181015185830152016103be565b818111156103e7576000828501525b50919091019291505056fea264697066735822122081533500f222fedef7b35c3ac6468c0c080fed7f27d5ec9c324e65ff8b83fddc64736f6c634300080b0033","bytecodeSha1":"95ec1f31c7641429d2b5bb06a9ea6922ab49a223","type":"contract","abi":[{"inputs":[],"stateMutability":"nonpayable","type":"constructor","name":"constructor"},{"inputs":[{"internalType":"string","name":"","type":"string"}],"name":"certs","outputs":[{"internalType":"address","name":"recipient","type":"address"},{"internalType":"bool","name":"confirmed","type":"bool"}],"stateMutability":"view","type":"function"},{"inputs":[{"internalType":"string","name":"cert","type":"string"}],"name":"createCert","outputs":[],"stateMutability":"nonpayable","type":"function"},{"inputs":[{"internalType":"string","name":"cert","type":"string"}],"name":"deleteCert","outputs":[],"stateMutability":"nonpayable","type":"function"},{"inputs":[{"internalType":"string","name":"cert","type":"string"}],"name":"isCertAvailable","outputs":[{"internalType":"bool","name":"","type":"bool"}],"stateMutability":"view","type":"function"},{"inputs":[],"name":"owner","outputs":[{"internalType":"address","name":"","type":"address"}],"stateMutability":"view","type":"function"}],"compiler":{"version":"0.8.11+commit.d7f03943","evm_version":"istanbul","optimizer":{"enabled":true,"runs":200}},"contractName":"Certificate","language":"Solidity","natspec":{"methods":{},"kind":"dev","version":1},"opcodes":"PUSH1 0x80 PUSH1 0x40 MSTORE CALLVALUE DUP1 ISZERO PUSH2 0x10 JUMPI PUSH1 0x0 DUP1 REVERT JUMPDEST POP PUSH1 0x4 CALLDATASIZE LT PUSH2 0x57 JUMPI PUSH1 0x0 CALLDATALOAD PUSH1 0xE0 SHR DUP1 PUSH4 0x2688AF26 EQ PUSH2 0x5C JUMPI DUP1 PUSH4 0x68E66B83 EQ PUSH2 0x84 JUMPI DUP1 PUSH4 0x8DA5CB5B EQ PUSH2 0x99 JUMPI DUP1 PUSH4 0xB90A74E8 EQ PUSH2 0xC4 JUMPI DUP1 PUSH4 0xCEBDC1C5 EQ PUSH2 0xD7 JUMPI JUMPDEST PUSH1 0x0 DUP1 REVERT JUMPDEST PUSH2 0x6F PUSH2 0x6A CALLDATASIZE PUSH1 0x4 PUSH2 0x306 JUMP JUMPDEST PUSH2 0x136 JUMP JUMPDEST PUSH1 0x40 MLOAD SWAP1 ISZERO ISZERO DUP2 MSTORE PUSH1 0x20 ADD JUMPDEST PUSH1 0x40 MLOAD DUP1 SWAP2 SUB SWAP1 RETURN JUMPDEST PUSH2 0x97 PUSH2 0x92 CALLDATASIZE PUSH1 0x4 PUSH2 0x306 JUMP JUMPDEST PUSH2 0x170 JUMP JUMPDEST STOP JUMPDEST PUSH1 0x0 SLOAD PUSH2 0xAC SWAP1 PUSH1 0x1 PUSH1 0x1 PUSH1 0xA0 SHL SUB AND DUP2 JUMP JUMPDEST PUSH1 0x40 MLOAD PUSH1 0x1 PUSH1 0x1 PUSH1 0xA0 SHL SUB SWAP1 SWAP2 AND DUP2 MSTORE PUSH1 0x20 ADD PUSH2 0x7B JUMP JUMPDEST PUSH2 0x97 PUSH2 0xD2 CALLDATASIZE PUSH1 0x4 PUSH2 0x306 JUMP JUMPDEST PUSH2 0x248 JUMP JUMPDEST PUSH2 0x117 PUSH2 0xE5 CALLDATASIZE PUSH1 0x4 PUSH2 0x306 JUMP JUMPDEST DUP1 MLOAD PUSH1 0x20 DUP2 DUP4 ADD DUP2 ADD DUP1 MLOAD PUSH1 0x1 DUP3 MSTORE SWAP3 DUP3 ADD SWAP2 SWAP1 SWAP4 ADD KECCAK256 SWAP2 MSTORE SLOAD PUSH1 0x1 PUSH1 0x1 PUSH1 0xA0 SHL SUB DUP2 AND SWAP1 PUSH1 0x1 PUSH1 0xA0 SHL SWAP1 DIV PUSH1 0xFF AND DUP3 JUMP JUMPDEST PUSH1 0x40 DUP1 MLOAD PUSH1 0x1 PUSH1 0x1 PUSH1 0xA0 SHL SUB SWAP1 SWAP4 AND DUP4 MSTORE SWAP1 ISZERO ISZERO PUSH1 0x20 DUP4 ADD MSTORE ADD PUSH2 0x7B JUMP JUMPDEST PUSH1 0x0 PUSH1 0x1 DUP3 PUSH1 0x40 MLOAD PUSH2 0x148 SWAP2 SWAP1 PUSH2 0x3B7 JUMP JUMPDEST SWAP1 DUP2 MSTORE PUSH1 0x40 MLOAD PUSH1 0x20 SWAP2 DUP2 SWAP1 SUB SWAP2 SWAP1 SWAP2 ADD SWAP1 KECCAK256 SLOAD PUSH1 0x1 PUSH1 0xA0 SHL SWAP1 DIV PUSH1 0xFF AND ISZERO ISZERO PUSH1 0x1 EQ SWAP3 SWAP2 POP POP JUMP JUMPDEST PUSH2 0x179 DUP2 PUSH2 0x136 JUMP JUMPDEST ISZERO PUSH2 0x1CB JUMPI PUSH1 0x40 MLOAD PUSH3 0x461BCD PUSH1 0xE5 SHL DUP2 MSTORE PUSH1 0x20 PUSH1 0x4 DUP3 ADD DUP2 SWAP1 MSTORE PUSH1 0x24 DUP3 ADD MSTORE PUSH32 0x436572746966696361746520697320616C726561647920617661696C61626C65 PUSH1 0x44 DUP3 ADD MSTORE PUSH1 0x64 ADD JUMPDEST PUSH1 0x40 MLOAD DUP1 SWAP2 SUB SWAP1 REVERT JUMPDEST CALLER PUSH1 0x1 DUP3 PUSH1 0x40 MLOAD PUSH2 0x1DC SWAP2 SWAP1 PUSH2 0x3B7 JUMP JUMPDEST SWAP1 DUP2 MSTORE PUSH1 0x40 MLOAD SWAP1 DUP2 SWAP1 SUB PUSH1 0x20 ADD DUP2 KECCAK256 DUP1 SLOAD PUSH1 0x1 PUSH1 0x1 PUSH1 0xA0 SHL SUB SWAP4 SWAP1 SWAP4 AND PUSH1 0x1 PUSH1 0x1 PUSH1 0xA0 SHL SUB NOT SWAP1 SWAP4 AND SWAP3 SWAP1 SWAP3 OR SWAP1 SWAP2 SSTORE PUSH1 0x1 SWAP1 DUP2 SWAP1 PUSH2 0x21C SWAP1 DUP5 SWAP1 PUSH2 0x3B7 JUMP JUMPDEST SWAP1 DUP2 MSTORE PUSH1 0x40 MLOAD SWAP1 DUP2 SWAP1 SUB PUSH1 0x20 ADD SWAP1 KECCAK256 DUP1 SLOAD SWAP2 ISZERO ISZERO PUSH1 0x1 PUSH1 0xA0 SHL MUL PUSH1 0xFF PUSH1 0xA0 SHL NOT SWAP1 SWAP3 AND SWAP2 SWAP1 SWAP2 OR SWAP1 SSTORE POP JUMP JUMPDEST PUSH2 0x251 DUP2 PUSH2 0x136 JUMP JUMPDEST PUSH2 0x29D JUMPI PUSH1 0x40 MLOAD PUSH3 0x461BCD PUSH1 0xE5 SHL DUP2 MSTORE PUSH1 0x20 PUSH1 0x4 DUP3 ADD MSTORE PUSH1 0x1A PUSH1 0x24 DUP3 ADD MSTORE PUSH32 0x436572746966696361746520646F6573206E6F74206578697374000000000000 PUSH1 0x44 DUP3 ADD MSTORE PUSH1 0x64 ADD PUSH2 0x1C2 JUMP JUMPDEST PUSH1 0x0 PUSH1 0x1 DUP3 PUSH1 0x40 MLOAD PUSH2 0x2AF SWAP2 SWAP1 PUSH2 0x3B7 JUMP JUMPDEST SWAP1 DUP2 MSTORE PUSH1 0x40 MLOAD SWAP1 DUP2 SWAP1 SUB PUSH1 0x20 ADD DUP2 KECCAK256 DUP1 SLOAD PUSH1 0x1 PUSH1 0x1 PUSH1 0xA0 SHL SUB SWAP4 SWAP1 SWAP4 AND PUSH1 0x1 PUSH1 0x1 PUSH1 0xA0 SHL SUB NOT SWAP1 SWAP4 AND SWAP3 SWAP1 SWAP3 OR SWAP1 SWAP2 SSTORE PUSH1 0x0 SWAP1 PUSH1 0x1 SWAP1 PUSH2 0x21C SWAP1 DUP5 SWAP1 PUSH2 0x3B7 JUMP JUMPDEST PUSH4 0x4E487B71 PUSH1 0xE0 SHL PUSH1 0x0 MSTORE PUSH1 0x41 PUSH1 0x4 MSTORE PUSH1 0x24 PUSH1 0x0 REVERT JUMPDEST PUSH1 0x0 PUSH1 0x20 DUP3 DUP5 SUB SLT ISZERO PUSH2 0x318 JUMPI PUSH1 0x0 DUP1 REVERT JUMPDEST DUP2 CALLDATALOAD PUSH8 0xFFFFFFFFFFFFFFFF DUP1 DUP3 GT ISZERO PUSH2 0x330 JUMPI PUSH1 0x0 DUP1 REVERT JUMPDEST DUP2 DUP5 ADD SWAP2 POP DUP5 PUSH1 0x1F DUP4 ADD SLT PUSH2 0x344 JUMPI PUSH1 0x0 DUP1 REVERT JUMPDEST DUP2 CALLDATALOAD DUP2 DUP2 GT ISZERO PUSH2 0x356 JUMPI PUSH2 0x356 PUSH2 0x2F0 JUMP JUMPDEST PUSH1 0x40 MLOAD PUSH1 0x1F DUP3 ADD PUSH1 0x1F NOT SWAP1 DUP2 AND PUSH1 0x3F ADD AND DUP2 ADD SWAP1 DUP4 DUP3 GT DUP2 DUP4 LT OR ISZERO PUSH2 0x37E JUMPI PUSH2 0x37E PUSH2 0x2F0 JUMP JUMPDEST DUP2 PUSH1 0x40 MSTORE DUP3 DUP2 MSTORE DUP8 PUSH1 0x20 DUP5 DUP8 ADD ADD GT ISZERO PUSH2 0x397 JUMPI PUSH1 0x0 DUP1 REVERT JUMPDEST DUP3 PUSH1 0x20 DUP7 ADD PUSH1 0x20 DUP4 ADD CALLDATACOPY PUSH1 0x0 SWAP3 DUP2 ADD PUSH1 0x20 ADD SWAP3 SWAP1 SWAP3 MSTORE POP SWAP6 SWAP5 POP POP POP POP POP JUMP JUMPDEST PUSH1 0x0 DUP3 MLOAD PUSH1 0x0 JUMPDEST DUP2 DUP2 LT ISZERO PUSH2 0x3D8 JUMPI PUSH1 0x20 DUP2 DUP7 ADD DUP2 ADD MLOAD DUP6 DUP4 ADD MSTORE ADD PUSH2 0x3BE JUMP JUMPDEST DUP2 DUP2 GT ISZERO PUSH2 0x3E7 JUMPI PUSH1 0x0 DUP3 DUP6 ADD MSTORE JUMPDEST POP SWAP2 SWAP1 SWAP2 ADD SWAP3 SWAP2 POP POP JUMP INVALID LOG2 PUSH5 0x6970667358 0x22 SLT KECCAK256 DUP2 MSTORE8 CALLDATALOAD STOP CALLCODE 0x22 INVALID 0xDE 0xF7 0xB3 0x5C GASPRICE 0xC6 CHAINID DUP13 0xC ADDMOD 0xF 0xED PUSH32 0x27D5EC9C324E65FF8B83FDDC64736F6C634300080B0033000000000000000000 ","sha1":"52e42304c82976cd473d73ba0130408f4f109b9e","source":"// SPDX-License-Identifier: GPL-3.0\n\npragma solidity >=0.7.0 <0.9.0;\n\ncontract Certificate {\n    address public owner;\n\n    struct cert {\n        address recipient;\n        bool confirmed;\n    }\n    mapping(string => cert) public certs;\n\n    constructor() {\n        owner = msg.sender;\n    }\n\n    function isCertAvailable(string memory cert) public view returns(bool) {\n//        if (certs[cert].recipient != msg.sender) return false;\n        return certs[cert].confirmed == true;\n    }\n\n    function createCert(string memory cert) public {\n        require(!isCertAvailable(cert), \"Certificate is already available\");\n        certs[cert].recipient = msg.sender;\n        certs[cert].confirmed = true;\n    }\n\n    function deleteCert(string memory cert) public {\n        require(isCertAvailable(cert), \"Certificate does not exist\");\n        certs[cert].recipient = address(0);\n        certs[cert].confirmed = false;\n    }\n}\n","sourcePath":"contracts/Certificate.sol","deployment":{"address":"0x8e68509AE5E1611c7D1AC2011505B5437B42Bde1","chainid":"4","blockHeight":10680034}}